{
  "_format": "hh-sol-artifact-1",
  "contractName": "Ballot",
  "sourceName": "contracts/Ballot.sol",
  "abi": [
    {
      "inputs": [
        {
          "internalType": "bytes32[]",
          "name": "proposalNames",
          "type": "bytes32[]"
        },
        {
          "internalType": "contract IMyToken",
          "name": "_tokenContract",
          "type": "address"
        },
        {
          "internalType": "uint256",
          "name": "_targetBlockNumber",
          "type": "uint256"
        }
      ],
      "stateMutability": "nonpayable",
      "type": "constructor"
    },
    {
      "inputs": [
        {
          "internalType": "address",
          "name": "",
          "type": "address"
        }
      ],
      "name": "callerVoteCount",
      "outputs": [
        {
          "internalType": "uint256",
          "name": "",
          "type": "uint256"
        }
      ],
      "stateMutability": "view",
      "type": "function"
    },
    {
      "inputs": [
        {
          "internalType": "address",
          "name": "voter",
          "type": "address"
        }
      ],
      "name": "getVotePower",
      "outputs": [
        {
          "internalType": "uint256",
          "name": "",
          "type": "uint256"
        }
      ],
      "stateMutability": "view",
      "type": "function"
    },
    {
      "inputs": [
        {
          "internalType": "uint256",
          "name": "",
          "type": "uint256"
        }
      ],
      "name": "proposals",
      "outputs": [
        {
          "internalType": "bytes32",
          "name": "name",
          "type": "bytes32"
        },
        {
          "internalType": "uint256",
          "name": "voteCount",
          "type": "uint256"
        }
      ],
      "stateMutability": "view",
      "type": "function"
    },
    {
      "inputs": [
        {
          "internalType": "address",
          "name": "",
          "type": "address"
        }
      ],
      "name": "remainingVotePower",
      "outputs": [
        {
          "internalType": "uint256",
          "name": "",
          "type": "uint256"
        }
      ],
      "stateMutability": "view",
      "type": "function"
    },
    {
      "inputs": [],
      "name": "targetBlockNumber",
      "outputs": [
        {
          "internalType": "uint256",
          "name": "",
          "type": "uint256"
        }
      ],
      "stateMutability": "view",
      "type": "function"
    },
    {
      "inputs": [],
      "name": "tokenContract",
      "outputs": [
        {
          "internalType": "contract IMyToken",
          "name": "",
          "type": "address"
        }
      ],
      "stateMutability": "view",
      "type": "function"
    },
    {
      "inputs": [
        {
          "internalType": "uint256",
          "name": "proposal",
          "type": "uint256"
        },
        {
          "internalType": "uint256",
          "name": "amount",
          "type": "uint256"
        }
      ],
      "name": "vote",
      "outputs": [],
      "stateMutability": "nonpayable",
      "type": "function"
    },
    {
      "inputs": [
        {
          "internalType": "address",
          "name": "",
          "type": "address"
        }
      ],
      "name": "votePowerSpent",
      "outputs": [
        {
          "internalType": "uint256",
          "name": "",
          "type": "uint256"
        }
      ],
      "stateMutability": "view",
      "type": "function"
    },
    {
      "inputs": [],
      "name": "winnerName",
      "outputs": [
        {
          "internalType": "bytes32",
          "name": "winnerName_",
          "type": "bytes32"
        }
      ],
      "stateMutability": "view",
      "type": "function"
    },
    {
      "inputs": [],
      "name": "winningProposal",
      "outputs": [
        {
          "internalType": "uint256",
          "name": "winningProposal_",
          "type": "uint256"
        }
      ],
      "stateMutability": "view",
      "type": "function"
    }
  ],
  "bytecode": "0x608060405234801561001057600080fd5b506040516107a43803806107a483398101604081905261002f916100fe565b600080546001600160a01b0319166001600160a01b03841617815560028290555b83518110156100c35760016040518060400160405280868481518110610078576100786101d6565b602090810291909101810151825260009181018290528354600181810186559483529181902083516002909302019182559190910151910155806100bb816101ec565b915050610050565b50505050610213565b634e487b7160e01b600052604160045260246000fd5b80516001600160a01b03811681146100f957600080fd5b919050565b60008060006060848603121561011357600080fd5b83516001600160401b038082111561012a57600080fd5b818601915086601f83011261013e57600080fd5b8151602082821115610152576101526100cc565b8160051b604051601f19603f83011681018181108682111715610177576101776100cc565b60405292835281830193508481018201928a84111561019557600080fd5b948201945b838610156101b35785518552948201949382019361019a565b97506101c290508882016100e2565b955050505050604084015190509250925092565b634e487b7160e01b600052603260045260246000fd5b60006001820161020c57634e487b7160e01b600052601160045260246000fd5b5060010190565b610582806102226000396000f3fe608060405234801561001057600080fd5b506004361061009e5760003560e01c8063609ff1bd11610066578063609ff1bd146101525780639e90d0d91461015a578063b384abef1461017a578063bb9c09201461018f578063e2ba53f0146101a257600080fd5b8063013cf08b146100a35780630c019a04146100d0578063220d5e52146100fe5780632a8cd29e1461011e57806355a373d614610127575b600080fd5b6100b66100b136600461045d565b6101aa565b604080519283526020830191909152015b60405180910390f35b6100f06100de366004610476565b60056020526000908152604090205481565b6040519081526020016100c7565b6100f061010c366004610476565b60046020526000908152604090205481565b6100f060025481565b60005461013a906001600160a01b031681565b6040516001600160a01b0390911681526020016100c7565b6100f06101d8565b6100f0610168366004610476565b60036020526000908152604090205481565b61018d6101883660046104a6565b610255565b005b6100f061019d366004610476565b6103b5565b6100f061042a565b600181815481106101ba57600080fd5b60009182526020909120600290910201805460019091015490915082565b600080805b6001548110156102505781600182815481106101fb576101fb6104c8565b906000526020600020906002020160010154111561023e5760018181548110610226576102266104c8565b90600052602060002090600202016001015491508092505b80610248816104f4565b9150506101dd565b505090565b6000610260336103b5565b33600090815260056020526040902054909150156102a95733600090815260036020526040902054610292908261050d565b3360009081526004602052604090208190556102bd565b336000908152600460205260409020819055805b50336000908152600460205260409020548211156103335760405162461bcd60e51b815260206004820152602960248201527f4572726f723a20547279696e6720746f20766f7465206d6f7265207468616e20604482015268617661696c61626c6560b81b606482015260840160405180910390fd5b3360009081526003602052604081208054849290610352908490610520565b9091555050336000908152600560205260408120805491610372836104f4565b9190505550816001848154811061038b5761038b6104c8565b906000526020600020906002020160010160008282546103ab9190610520565b9091555050505050565b600080546040516309ab24eb60e41b81526001600160a01b03848116600483015290911690639ab24eb090602401602060405180830381865afa158015610400573d6000803e3d6000fd5b505050506040513d601f19601f820116820180604052508101906104249190610533565b92915050565b600060016104366101d8565b81548110610446576104466104c8565b906000526020600020906002020160000154905090565b60006020828403121561046f57600080fd5b5035919050565b60006020828403121561048857600080fd5b81356001600160a01b038116811461049f57600080fd5b9392505050565b600080604083850312156104b957600080fd5b50508035926020909101359150565b634e487b7160e01b600052603260045260246000fd5b634e487b7160e01b600052601160045260246000fd5b600060018201610506576105066104de565b5060010190565b81810381811115610424576104246104de565b80820180821115610424576104246104de565b60006020828403121561054557600080fd5b505191905056fea2646970667358221220d96f857ec0df896d406f768a85d1167f278f56a1275a03e7457efd3a2c733dc464736f6c63430008140033",
  "linkReferences": {},
  "deployedLinkReferences": {}
}